:100000000C942A000C943F000C943F000C943F0089
:100010000C943F000C943F000C943F000C943F0064
:100020000C943F000C943F000C943F000C943F0054
:100030000C943F000C943F000C943F000C943F0044
:100040000C943F000C943F000C943F000C943F0034
:100050000C943F0011241FBECFE5D8E0DEBFCDBF1A
:1000600010E0A0E6B0E0ECEAF1E002C005900D92ED
:10007000A437B107D9F70E94C5000C94D4000C94A2
:10008000000080E180B980E486BF089584EA86BFDD
:1000900006B607FEFDCF089584E986BF06B604FCC8
:1000A000FDCF089583B984EC86BF06B607FEFDCF69
:1000B00008951F93CF93DF93D82FC62F182F107F4B
:1000C000162B812F8C600E945200812F8B7F8860BD
:1000D0000E94520020E1D29FC0011124C82B8C2F16
:1000E0008C600E9452008C2F8B7F88600E9452008F
:1000F000DF91CF911F9108950E9446008EE40E94E7
:10010000520060E083E30E94590060E082E30E94B5
:10011000590060E088E20E94590060E086E00E9499
:10012000590060E08CE00E94590060E081E00E948C
:1001300059000E944C008FE39FE10197F1F700C046
:10014000000008950F931F93CF938C01C62F0E9438
:1001500046008EE40E94520060E08C2F0E945900FD
:10016000F8018081882359F0C0E0CF5F61E00E94F0
:100170005900F801EC0FF11D80818111F6CF0E942A
:100180004C00CF911F910F9108950E9441000E9451
:100190007C0060E880E690E00E94A20060EC88E6C7
:0C01A00090E00E94A200FFCFF894FFCF77
:1001AC0054656C65696E660073656D657374722059
:0401BC0049560000A0
:00000001FF
