:100000000C942A000C943F000C943F000C943F0089
:100010000C943F000C943F000C943F000C943F0064
:100020000C943F000C943F000C943F000C943F0054
:100030000C943F000C943F000C943F000C943F0044
:100040000C943F000C943F000C943F000C943F0034
:100050000C943F0011241FBECFE5D8E0DEBFCDBF1A
:1000600010E0A0E6B0E0E8E7F4E002C005900D92F1
:10007000A439B107D9F70E941A020C943A020C94E1
:10008000000080E180B980E486BF089584EA86BFDD
:1000900006B607FEFDCF089584E986BF06B604FCC8
:1000A000FDCF089583B984EC86BF06B607FEFDCF69
:1000B00008951F93CF93DF93D82FC62F182F107F4B
:1000C000162B812F8C600E945200812F8B7F8860BD
:1000D0000E94520020E1D29FC0011124C82B8C2F16
:1000E0008C600E9452008C2F8B7F88600E9452008F
:1000F000DF91CF911F9108950F931F93CF93DF93BB
:10010000880F880F880FC0E4C80F062F172FD8E07C
:10011000DC0F60E08C2F0E94590061E0F8018191B2
:100120008F010E945900CF5FCD13F3CFDF91CF91A4
:100130001F910F9108950E9446008EE40E94520084
:1001400060E083E30E94590060E082E30E9459006E
:1001500060E088E20E94590060E086E00E94590059
:1001600060E08CE00E94590060E870E081E00E944D
:100170007C0068E770E082E00E947C0060E770E04D
:1001800083E00E947C0068E670E084E00E947C00CE
:1001900060E670E085E00E947C0060E081E00E9403
:1001A00059000E944C008FE39FE10197F1F700C0D6
:1001B00000000895CF92DF92EF92FF920F931F936A
:1001C000CF93DF938C01C62F0E9446008EE40E94DD
:1001D000520060E08C2F0E945900F8018081882332
:1001E00091F1C0E00F2EF5E0CF2EF02D6894DD24C4
:1001F000D2F80F2EF3E0EF2EF02D6894FF24F1F8E3
:10020000D1E0813311F4D0830AC08081823311F4AC
:10021000F0820AC08081833311F4E08209C08081BA
:10022000843311F4D08204C08081853309F4C08204
:10023000CF5F6D2F80810E945900F801EC0FF11DF6
:1002400080818111DECF0E944C00DF91CF911F9100
:100250000F91FF90EF90DF90CF90089581EC87B9D8
:1002600084E886B9089581EC87B9369A3699FECF2D
:1002700084B195B19695879596958795089582EC6A
:1002800087B9369A3699FECF84B195B19695879500
:100290009695879508951F93CF93DF93C62F9295D8
:1002A00082958F7089279F708927182F811109C027
:1002B00088E890E00E94DA00DC2F0FC0113168F06E
:1002C00019C0D62F6D2F8AE890E00E94DA00DF5F18
:1002D0008D2F8C1B1817B0F7F1CFCD2F1D1BD12FF1
:1002E0006C2F88E890E00E94DA00CF5F8D2F8C0F92
:1002F0008131B0F3DF91CF911F9108950F931F9338
:10030000CF93DF93D62F9C01ABEABAEA0E942B026F
:10031000969587951DEC819F112D112416951695A4
:10032000912F990F990F910F082F091B811106C06A
:100330006D2F88E890E00E94DA003DC0013059F44A
:10034000123008F069C06D2F8CE890E00E94DA004E
:10035000111127C032C0023059F4123008F062C0C7
:100360006D2F8EE890E00E94DA0011111AC02DC0A6
:10037000033059F4123008F052C06D2F80E990E03C
:100380000E94DA0011110DC028C0043009F041C0EC
:10039000123038F46D2F82E990E00E94DA001123C8
:1003A00021F1C1E06D2F8AE890E00E94DA00DF5F62
:1003B000CF5F1C17B8F7013031F46D2F8CE890E057
:1003C0000E94DA0017C0023031F46D2F8EE890E001
:1003D0000E94DA000FC0033031F46D2F80E990E005
:1003E0000E94DA0007C0043029F46D2F82E990E002
:1003F0000E94DA00C1E0CD0F1131B8F4D11BDE5EEE
:100400006C2F88E890E00E94DA00CF5FCD13F8CF20
:100410000CC01111C6CFEECF1111C3CFCECF111129
:10042000C0CFDBCF1111BDCFD0CFDF91CF911F91C6
:100430000F9108950E9441000E949B000E942E018E
:100440000E94330160E80E944B010E943F0160EC72
:100450000E947E01F5CFA29FB001B39FC001A39F70
:10046000700D811D1124911DB29F700D811D1124ED
:08047000911D0895F894FFCFDF
:100478001F1F1F1F1F1F1F1F1E1E1E1E1E1E1E1E8C
:100488001C1C1C1C1C1C1C1C1818181818181818C4
:10049800101010101010101020003500310032001C
:0404A80033003400E9
:00000001FF
