S0120000576F6C746F6D6965727A2E73726563D6
S11300000C942A000C943F000C943F000C943F0085
S11300100C943F000C943F000C943F000C943F0060
S11300200C943F000C943F000C943F000C943F0050
S11300300C943F000C943F000C943F000C943F0040
S11300400C943F000C943F000C943F000C943F0030
S11300500C943F0011241FBECFE5D8E0DEBFCDBF16
S113006010E0A0E6B0E0EAE3F2E002C005900D92F1
S1130070A436B107D9F70E94F8000C941B010C9424
S1130080000080E180B980E486BF089584EA86BFD9
S113009006B607FEFDCF089584E986BF06B604FCC4
S11300A0FDCF089583B984EC86BF06B607FEFDCF65
S11300B008951F93CF93DF93D82FC62F182F107F47
S11300C0162B812F8C600E945200812F8B7F8860B9
S11300D00E94520020E1D29FC0011124C82B8C2F12
S11300E08C600E9452008C2F8B7F88600E9452008B
S11300F0DF91CF911F9108950E9446008EE40E94E3
S1130100520060E083E30E94590060E082E30E94B1
S1130110590060E088E20E94590060E086E00E9495
S1130120590060E08CE00E94590060E081E00E9488
S113013059000E944C008FE39FE10197F1F700C042
S1130140000008950F931F93CF938C01C62F0E9434
S113015046008EE40E94520060E08C2F0E945900F9
S1130160F8018081882359F0C0E0CF5F61E00E94EC
S11301705900F801EC0FF11D80818111F6CF0E9426
S11301804C00CF911F910F91089581EC87B984E8B9
S113019086B90895EF92FF921F93CF93DF93162FA2
S11301A07C01F694E794F694E794F694E794F69435
S11301B0E794DE2DC62F6C2F80E690E00E94A2000B
S11301C0CF5F8C2F811BD817B0F7D13158F4DC2FB7
S11301D0DE19DF5E6C2F82E690E00E94A200CF5F02
S11301E0DC13F8CFDF91CF911F91FF90EF9008952A
S11301F00E9441000E947C000E94C500D1ECC2EC28
S1130200D7B9369A3699FECF84B195B160E8969500
S11302108795969587950E94CA00C7B9369A3699EC
S1130220FECF84B195B160EC9695879596958795A8
S10D02300E94CA00E5CFF894FFCF46
S107023A30002E005E
S9030000FC
